:100000000C9434000C9440000C943E000C943E0080
:100010000C943E000C943E000C943E000C943E0068
:100020000C943E000C943E000C943E000C943E0058
:100030000C943E000C943E000C943E000C943E0048
:100040000C943E000C943E000C943E000C943E0038
:100050000C943E000C943E000C943E000C943E0028
:100060000C943E000C943E0011241FBECFEFD8E04C
:10007000DEBFCDBF0E945E000C9469000C940000AE
:100080001F920F920FB60F9211242F938F939F936D
:1000900095B181E0892785B92FEF89EF90E0215054
:1000A00080409040E1F700C00000E09A9F918F915E
:1000B0002F910F900FBE0F901F901895209A8FB719
:1000C00080688FBF80916900836080936900E89A9F
:0600D000FFCFF894FFCF02
:00000001FF
